:100000000C9462000C948A000C948A000C948A0070
:100010000C948A000C948A000C948A000C948A0038
:100020000C948A000C948A000C948A000C948A0028
:100030000C948A000C948A000C948A000C948A0018
:100040000C943D030C948A000C948A000C948A0052
:100050000C948A000C948A000C948A000C948A00F8
:100060000C948A000C948A000000000024002700F1
:100070002A0000000000250028002B0000000008D6
:10008000000201000003040700000000000000005F
:1000900000000000230026002900040404040404D6
:1000A0000404020202020202030303030303010227
:1000B00004081020408001020408102001020408F6
:1000C0001020D00511241FBECFEFD8E0DEBFCDBF7A
:1000D00011E0A0E0B1E0E8EAF0E102C005900D9285
:1000E000A639B107D9F721E0A6E9B1E001C01D9218
:1000F000AD3BB207E1F710E0C2E6D0E004C02197C3
:10010000FE010E944C08C136D107C9F70E94CC03FA
:100110000C9452080C940000AF92BF92CF92DF92E1
:10012000EF92FF920F931F93CF93DF936C017B01AC
:100130008B01040F151FEB015E01AE18BF08C0173D
:10014000D10759F06991D601ED91FC910190F081B0
:10015000E02DC6010995892B79F7C501DF91CF9173
:100160001F910F91FF90EF90DF90CF90BF90AF90D5
:10017000089590E0FC01E458FF4F2491FC01E25502
:10018000FF4F3491FC01E656FF4FE491EE23C9F096
:10019000222339F0233001F1A8F4213019F1223063
:1001A00029F1F0E0EE0FFF1FEE58FF4FA591B4913B
:1001B0008FB7F894EC91611126C030953E233C93A3
:1001C0008FBF08952730A9F02830C9F0243049F7AF
:1001D000809180008F7D03C0809180008F77809315
:1001E0008000DFCF84B58F7784BDDBCF84B58F7D72
:1001F000FBCF8091B0008F778093B000D2CF8091F9
:10020000B0008F7DF9CF3E2BDACFCF93DF9390E014
:10021000FC01E255FF4F249186569F4FFC018491CB
:100220008823D1F090E0880F991FFC01E859FF4F17
:10023000A591B491FC01EE58FF4FC591D491611185
:100240000EC09FB7F8948C91E22FE0958E238C938B
:100250002881E223E8839FBFDF91CF9108958FB774
:10026000F894EC91E22BEC938FBFF6CF3FB7F89464
:1002700080919B0190919C01A0919D01B0919E0164
:1002800026B5A89B05C02F3F19F00196A11DB11DF1
:100290003FBFBA2FA92F982F8827BC01CD01620F2D
:1002A000711D811D911D42E0660F771F881F991FE8
:1002B0004A95D1F708958F929F92AF92BF92CF92B5
:1002C000DF92EF92FF924B015C010E9436016B01BD
:1002D0007C010E9436016C197D098E099F09683ED8
:1002E000734081059105A8F321E0821A9108A108C5
:1002F000B10888EEC80E83E0D81EE11CF11C811401
:100300009104A104B10429F7FF90EF90DF90CF9002
:10031000BF90AF909F908F900895089590E080E0F7
:100320000895FC0101900020E9F73197AF01481BC7
:10033000590BBC0185EA91E00C948C008F929F923E
:10034000AF92BF920F931F93CF93DF93CDB7DEB7DA
:10035000A1970FB6F894DEBF0FBECDBF19A24230F1
:1003600008F44AE08E010F5D1F4F842E912CB12CB2
:10037000A12CA50194010E942A08E62FB901CA0107
:10038000EA30F4F4E05DD801EE938D01232B242BA9
:10039000252B79F790E080E0109719F0CD010E94AD
:1003A0009101A1960FB6F894DEBF0FBECDBFDF91CD
:1003B000CF911F910F91BF90AF909F908F90089514
:1003C000E95CE1CF0C949101CF93DF93EC0160E005
:1003D0008E810E94B90061E08E810E94B90060E0C8
:1003E0008E810E94B9008BE891E00197F1F7DF91CF
:1003F000CF910895CF92DF92EF92FF920F931F93C8
:10040000CF93DF936C017C0187E0E80EF11CD0E014
:10041000C0E0062F10E0B8010C2E02C0759567955C
:100420000A94E2F76170F70181917F010E94B9009F
:100430002196C430D10579F7C601DF91CF911F9184
:100440000F91FF90EF90DF90CF900C94E401CF924A
:10045000DF92EF92FF920F931F93CF93DF93EC0104
:10046000F62E642F8C810E94B9008D818F3F19F088
:1004700060E00E94B9000F2D10E08F8584FF25C039
:100480006E0187E0C80ED11CF12CE12CB8010E2CB6
:1004900002C0759567950A94E2F76170F601819143
:1004A0006F010E94B900FFEFEF1AFF0A88E0E8161B
:1004B000F10461F7CE01DF91CF911F910F91FF9071
:1004C000EF90DF90CF900C94E401B80184E0759533
:1004D00067958A95E1F7CE010E94FA016F2DCE0152
:1004E000DF91CF911F910F91FF90EF90DF90CF9010
:1004F0000C94FA0140E0682F85EA91E00C94270201
:1005000081E00E947A028BE39FE10197F1F7089561
:10051000CF93DF93823029F49091B4019860909347
:10052000B4018093B8011092B90180E48093BA01BC
:1005300080E18093BB0180E58093BC0161E0809104
:10054000A9010E9405018091AA018F3F19F061E085
:100550000E94050161E08091AB010E940501C5EA9E
:10056000D1E09E01255A31408091B40184FD0BC039
:1005700084E090E021962817390744F461E08E81E9
:100580000E940501EECF88E090E0F4CF8BE39DE080
:100590000197F1F760E08091A9010E94B90060E045
:1005A0008091AB010E94B9008091AA018F3F19F0A0
:1005B00060E00E94B9008091B40184FD34C063E022
:1005C00085EA91E00E94FA01CBE4D6E4CE010197DE
:1005D000F1F763E085EA91E00E94FA012197F1F7D3
:1005E00063E085EA91E00E94FA0183E592E00197D9
:1005F000F1F762E085EA91E00E94FA018091B4018E
:1006000080620E947A0284E08093B5018CE00E94AF
:100610007A020E94800282E08093B60186E0DF9138
:10062000CF910C947A0280620E947A028BE496E465
:100630000197F1F78091B40180620E947A0283E50C
:1006400092E00197F1F78091B40180620E947A02F2
:10065000D5CFE091B801E23040F4E150F0E0EB5545
:10066000FE4F848980680C947A02E1E0F7CF41E084
:100670000E94270281E090E008951F920F920FB62A
:100680000F9211242F933F938F939F93AF93BF9318
:100690008091970190919801A0919901B0919A0150
:1006A0003091960123E0230F2D3758F50196A11DB7
:1006B000B11D209396018093970190939801A09388
:1006C0009901B0939A0180919B0190919C01A09116
:1006D0009D01B0919E010196A11DB11D80939B01CA
:1006E00090939C01A0939D01B0939E01BF91AF9107
:1006F0009F918F913F912F910F900FBE0F901F9060
:10070000189526E8230F0296A11DB11DD2CFCF92D6
:10071000DF92EF92FF920F931F93E82FF92F05C0FE
:10072000015011092109310961F190819623941733
:10073000B9F305C0015011092109310911F1908166
:1007400096239413F7CFC12CD12CE12CF12C0AC0A5
:100750008FEFC81AD80AE80AF80A0C151D052E05ED
:100760003F0579F080818623841791F36C2D7D2DD0
:100770008E2D9F2D1F910F91FF90EF90DF90CF90C6
:10078000089560E070E080E090E01F910F91FF908D
:10079000EF90DF90CF900895789484B5826084BD07
:1007A00084B5816084BD85B5826085BD85B5816075
:1007B00085BD80916E00816080936E0010928100F3
:1007C00080918100826080938100809181008160AE
:1007D000809381008091800081608093800080916F
:1007E000B10084608093B1008091B00081608093FB
:1007F000B00080917A00846080937A0080917A00C2
:10080000826080937A0080917A00816080937A0080
:1008100080917A00806880937A001092C10082E013
:100820000E94880261E08AE00E94050160E08BE09E
:100830000E94050161E088E00E94050161E08CE012
:100840000E9405018CE091E00E94E2010E942903D0
:100850008BE191E00E94E20160ED77E080E090E0C2
:100860000E945B01C3E0D0E093E2292E312C20E00E
:10087000A22E20E0B22E88248394912C0E94800224
:1008800060E08AE00E94B900CE010197F1F761E0D3
:100890008AE00E94B900C1010197F1F760E08AE0A7
:1008A0000E94B900CE010197F1F7E9EBF0E0649105
:1008B000E5EAF0E08491E82FF0E0EE0FFF1FE0574B
:1008C000FF4F8591949100E412E42FE030E0462F31
:1008D0000E948703611571058105910529F06F5FFD
:1008E0007F4F8F4F9F4F9F700E94010720E030E0A5
:1008F0004AEA53E40E94B80720E030E44CE956E4A9
:100900000E9460066093A1017093A2018093A301ED
:100910009093A4010E9480028AE291E00E94E20189
:100920000E9429038BE391E00E94E201C090A101A3
:10093000D090A201E090A301F090A401A70196013C
:10094000C701B6010E942508882309F456C085E432
:1009500091E00E94910181E591E00E94E20160ED49
:1009600077E080E090E00E945B01C090A101D09010
:10097000A201E090A301F090A40120E030E040E467
:1009800051E4C701B6010E945B0687FFE3C0809176
:100990009F019091A001009709F0C3C060E088E03A
:1009A0000E94B90061E08CE00E94B9000E948002C0
:1009B00084E591E00E94E2010E94290385E691E02E
:1009C0000E94E20160ED77E080E090E00E945B0130
:1009D00060E08CE00E94B90068EB7BE080E090E092
:1009E0000E945B019092A00180929F01A114B1042A
:1009F00009F444CF0E94000041CF26013701E8945A
:100A000077F82FEF3FEF4FE75FE7C301B2010E9496
:100A1000250881110DC02FEF3FEF4FE75FE7C301BE
:100A2000B2010E945B0618161CF489E491E091CF94
:100A30002FEF3FEF4FE75FE4C701B6010E94B30716
:100A400018161CF48DE491E084CF2FEF3FEF4FE7B1
:100A50005FECC701B6010E945B0687FDF3CF20E083
:100A600030E0A901C701B6010E945B0687FF0AC0FA
:100A700041E06DE285EA91E00E942702F7FAF094E6
:100A8000F7F8F0942AE037ED43EA5BE3C701B601DB
:100A90000E94EF052B013C010E94D2066B017C01F4
:100AA0000E9401079B01AC01C301B2010E94EE0547
:100AB0002B013C014AE0C701B6010E949E0141E0C2
:100AC0006EE285EA91E00E94270220E030E040E2F9
:100AD00051E4C301B2010E94B8072B013C010E94FE
:100AE000D2066B01F12CE12C4AE0C701B6010E944D
:100AF0009E01C701B6010E9401079B01AC01C30121
:100B0000B2010E94EE0520E030E040E251E40E9494
:100B1000B8070E94D20690E080E04AE00E949E0161
:100B20001ACF0197B9F460E088E00E94B9000E94F2
:100B3000800284E591E00E94E2010E94290385E69B
:100B400091E00E94E20168E873E180E090E00E9499
:100B50005B014CCF20E030E040EF51E4C701B6012B
:100B60000E94B30718160CF041CF61E088E00E94A4
:100B7000B9000E94800286E791E00E94E2010E9493
:100B8000290386E891E00E94E20168E873E180E0D1
:100B900090E00E945B011092A00110929F0126CF6D
:100BA000E5EAF1E01382128284E091E09183808390
:100BB00087E084838FEF858386E0868385E0878363
:100BC00084E0808783E0818782E0828713861486B1
:100BD00015861686178681E00C9488025058BB272C
:100BE000AA270E9406060C9479070E946B0738F02A
:100BF0000E94720720F039F49F3F19F426F40C94F8
:100C000068070EF4E095E7FB0C946207E92F0E9459
:100C10008A0758F3BA17620773078407950720F00D
:100C200079F4A6F50C94AC070EF4E0950B2EBA2FD0
:100C3000A02D0B01B90190010C01CA01A0011124E2
:100C4000FF27591B99F0593F50F4503E68F11A168E
:100C5000F040A22F232F342F4427585FF3CF46951F
:100C600037952795A795F0405395C9F77EF41F1641
:100C7000BA0B620B730B840BBAF09150A1F0FF0F0B
:100C8000BB1F661F771F881FC2F70EC0BA0F621FF7
:100C9000731F841F48F4879577956795B795F795E7
:100CA0009E3F08F0B0CF9395880F08F09927EE0F7C
:100CB0009795879508950E943E0708F481E008956E
:100CC0000E9474060C9479070E94720758F00E94E3
:100CD0006B0740F029F45F3F29F00C946207511133
:100CE0000C94AD070C9468070E948A0768F3992357
:100CF000B1F3552391F3951B550BBB27AA27621718
:100D00007307840738F09F5F5F4F220F331F441F24
:100D1000AA1FA9F335D00E2E3AF0E0E832D0915058
:100D20005040E695001CCAF72BD0FE2F29D0660F45
:100D3000771F881FBB1F261737074807AB07B0E888
:100D400009F0BB0B802DBF01FF2793585F4F3AF08E
:100D50009E3F510578F00C9462070C94AD075F3FFD
:100D6000E4F3983ED4F3869577956795B795F79514
:100D70009F5FC9F7880F911D9695879597F90895FC
:100D8000E1E0660F771F881FBB1F62177307840798
:100D9000BA0720F0621B730B840BBA0BEE1F88F7A7
:100DA000E09508950E94920788F09F5798F0B92F18
:100DB0009927B751B0F0E1F0660F771F881F991F90
:100DC0001AF0BA95C9F714C0B13091F00E94AC077F
:100DD000B1E008950C94AC07672F782F8827B85F8F
:100DE00039F0B93FCCF3869577956795B395D9F7E8
:100DF0003EF490958095709561957F4F8F4F9F4FF2
:100E00000895E89409C097FB3EF4909580957095FD
:100E100061957F4F8F4F9F4F9923A9F0F92F96E946
:100E2000BB279395F695879577956795B795F111BB
:100E3000F8CFFAF4BB0F11F460FF1BC06F5F7F4F58
:100E40008F4F9F4F16C0882311F096E911C077236A
:100E500021F09EE8872F762F05C0662371F096E873
:100E6000862F70E060E02AF09A95660F771F881F42
:100E7000DAF7880F9695879597F90895990F0008E6
:100E8000550FAA0BE0E8FEEF16161706E807F9075C
:100E9000C0F012161306E407F50798F0621B730BF7
:100EA000840B950B39F40A2661F0232B242B252B78
:100EB00021F408950A2609F4A140A6958FEF811D1B
:100EC000811D089597F99F6780E870E060E00895BC
:100ED0009FEF80EC089500240A9416161706180652
:100EE0000906089500240A9412161306140605062E
:100EF0000895092E0394000C11F4882352F0BB0FBF
:100F000040F4BF2B11F460FF04C06F5F7F4F8F4F21
:100F10009F4F089557FD9058440F551F59F05F3F5C
:100F200071F04795880F97FB991F61F09F3F79F00B
:100F300087950895121613061406551FF2CF46958D
:100F4000F1DF08C0161617061806991FF1CF86950F
:100F50007105610508940895E894BB2766277727F3
:100F6000CB0197F908950E943E0708F48FEF08958A
:100F70000E94CB070C9479070E946B0738F00E94FF
:100F8000720720F0952311F00C9462070C94680707
:100F900011240C94AD070E948A0770F3959FC1F34A
:100FA000950F50E0551F629FF001729FBB27F00D17
:100FB000B11D639FAA27F00DB11DAA1F649F66276C
:100FC000B00DA11D661F829F2227B00DA11D621FBB
:100FD000739FB00DA11D621F839FA00D611D221F75
:100FE000749F3327A00D611D231F849F600D211D59
:100FF000822F762F6A2F11249F5750409AF0F1F0DC
:1010000088234AF0EE0FFF1FBB1F661F771F881F44
:1010100091505040A9F79E3F510580F00C94620713
:101020000C94AD075F3FE4F3983ED4F38695779533
:101030006795B795F795E7959F5FC1F7FE2B880FEA
:10104000911D9695879597F908950E943E07880B04
:10105000990B0895A1E21A2EAA1BBB1BFD010DC01E
:10106000AA1FBB1FEE1FFF1FA217B307E407F50758
:1010700020F0A21BB30BE40BF50B661F771F881F34
:10108000991F1A9469F760957095809590959B01CA
:10109000AC01BD01CF010895EE0FFF1F0590F49143
:0810A000E02D0994F894FFCF44
:1010A8000000000037038C008E018D01202057615D
:1010B800746572204C6576656C2000202020496E8E
:1010C80064696361746F72202000576174657220CF
:1010D800537061636520496E20200054616E6B2057
:1010E80069733A20006E616E00696E66006F7666FD
:1010F80000436D0057617465722054616E6B204621
:10110800756C6C20004D6F746F72205475726E652B
:1011180064204F4646004C4F572057617465722033
:101128004C6576656C004D6F746F72205475726EE5
:061138006564204F4E002B
:00000001FF
